:100000000C9434000C9456000C943E000C943E006A
:100010000C943E000C943E000C943E000C943E0068
:100020000C943E000C943E000C943E000C94400056
:100030000C943E000C943E000C943E000C943E0048
:100040000C943E000C943E000C943E000C943E0038
:100050000C943E000C943E000C943E000C943E0028
:100060000C943E000C943E0011241FBECFEFD8E04C
:10007000DEBFCDBF0E9472000C9487000C9400007C
:100080001F920F920FB60F9211248F93EF93FF934D
:10009000EFE6F0E080818D7F8083E89AFF91EF9119
:1000A0008F910F900FBE0F901F9018951F920F9277
:1000B0000FB60F9211248F93EF93FF93E89880E28D
:1000C00083B91092850010928400EFE6F0E0808101
:1000D00082608083FF91EF918F910F900FBE0F9000
:1000E0001F901895259A52985A9A809169008360BA
:1000F00080936900E09AE89A85E39CE090938900F8
:10010000809388008DE0809381007894FFCFF894ED
:02011000FFCF1F
:00000001FF
