:100000000C9434000C9440000C944E000C943E0070
:100010000C943E000C943E000C943E000C943E0068
:100020000C943E000C943E000C943E000C943E0058
:100030000C943E000C943E000C943E000C943E0048
:100040000C943E000C943E000C943E000C943E0038
:100050000C943E000C943E000C943E000C943E0028
:100060000C943E000C943E0011241FBECFEFD8E04C
:10007000DEBFCDBF0E946A000C9481000C9400008A
:100080001F920F920FB60F9211248F9380E283B9C3
:100090008F910F900FBE0F901F9018951F920F9287
:1000A0000FB60F9211248F932D9B0BC08091690086
:1000B0008260809369008F910F900FBE0F901F9008
:1000C0001895809169008D7F809369008091690007
:1000D0008160EFCF52985A9A53985B9A259A8091F3
:1000E00069008260809369008091690088608093D4
:1000F00069008CB383608CBB8DB383608DBB7894B7
:06010000FFCFF894FFCFD1
:00000001FF
